{
  "transactions": [
    {
      "hash": "0x2c6f2baa14feb6ac00bb224777e1a772376e25b4088d7684cd1cbc0aa11054f6",
      "transactionType": "CALL",
      "contractName": null,
      "contractAddress": "0x8896f79ec5f83037c43fb2d83385b65a4521b138",
      "function": "claim(address,uint256,bytes32[],uint8,bytes32,bytes32)",
      "arguments": [
        "0xf39Fd6e51aad88F6F4ce6aB8827279cffFb92266",
        "25000000000000000000",
        "[0xd1445c931158119b00449ffcac3c947d028c0c359c34a6646d95962b3b55c6ad, 0xe5ebd1e1b5a5478a944ecab36a9a954ac3b6b8216875f6524caa7a1d87096576]",
        "28",
        "0xf92b8ae35b7f814df2930633c5cffd5e8a27d9e28f92389454419534ed11e9be",
        "0x6189aec80f4acd1417ddc8628bb532524a3a44a20fcc3d3ea8d6935080ccf29c"
      ],
      "transaction": {
        "from": "0x4f1d6c88f33bd7d25c9b76fcdff0483f4caf0c3a",
        "to": "0x8896f79ec5f83037c43fb2d83385b65a4521b138",
        "gas": "0x1da49",
        "value": "0x0",
        "input": "0x4497a169000000000000000000000000f39fd6e51aad88f6f4ce6ab8827279cfffb922660000000000000000000000000000000000000000000000015af1d78b58c4000000000000000000000000000000000000000000000000000000000000000000c0000000000000000000000000000000000000000000000000000000000000001cf92b8ae35b7f814df2930633c5cffd5e8a27d9e28f92389454419534ed11e9be6189aec80f4acd1417ddc8628bb532524a3a44a20fcc3d3ea8d6935080ccf29c0000000000000000000000000000000000000000000000000000000000000002d1445c931158119b00449ffcac3c947d028c0c359c34a6646d95962b3b55c6ade5ebd1e1b5a5478a944ecab36a9a954ac3b6b8216875f6524caa7a1d87096576",
        "nonce": "0x1a",
        "chainId": "0xaa36a7"
      },
      "additionalContracts": [],
      "isFixedGasLimit": false
    }
  ],
  "receipts": [
    {
      "status": "0x1",
      "cumulativeGasUsed": "0x14f6343",
      "logs": [
        {
          "address": "0x8896f79ec5f83037c43fb2d83385b65a4521b138",
          "topics": [
            "0x47cee97cb7acd717b3c0aa1435d004cd5b3c8c57d70dbceb4e4458bbd60e39d4",
            "0x000000000000000000000000f39fd6e51aad88f6f4ce6ab8827279cfffb92266",
            "0x0000000000000000000000000000000000000000000000015af1d78b58c40000"
          ],
          "data": "0x",
          "blockHash": "0x1b63416d1657a711c5b433dd41c429e0d6be2a7d2d4dc020b36db9f1be81cb12",
          "blockNumber": "0x67c367",
          "transactionHash": "0x2c6f2baa14feb6ac00bb224777e1a772376e25b4088d7684cd1cbc0aa11054f6",
          "transactionIndex": "0x3a",
          "logIndex": "0xa2",
          "removed": false
        },
        {
          "address": "0xc0d1af0a165bdf5fc81ec2f8db1dff8921afff42",
          "topics": [
            "0xddf252ad1be2c89b69c2b068fc378daa952ba7f163c4a11628f55a4df523b3ef",
            "0x0000000000000000000000008896f79ec5f83037c43fb2d83385b65a4521b138",
            "0x000000000000000000000000f39fd6e51aad88f6f4ce6ab8827279cfffb92266"
          ],
          "data": "0x0000000000000000000000000000000000000000000000015af1d78b58c40000",
          "blockHash": "0x1b63416d1657a711c5b433dd41c429e0d6be2a7d2d4dc020b36db9f1be81cb12",
          "blockNumber": "0x67c367",
          "transactionHash": "0x2c6f2baa14feb6ac00bb224777e1a772376e25b4088d7684cd1cbc0aa11054f6",
          "transactionIndex": "0x3a",
          "logIndex": "0xa3",
          "removed": false
        }
      ],
      "logsBloom": "0x00000004000020000000000000000000000000000000000000000000000000000000000000000000000000000000000000000010000000000100000000000000000000000000000000000008000000000000000000000000000000004000000000000000000000000000000100080000000000000000000000000010000000000000000000000000000000000000000000000000000000000000000000000000000000000000000000000000000000000000000000020000000000000000000000082002000020200000000000000000000000002004000000000000000000400000000000000000000000000000000000000000001000080000000000000001",
      "type": "0x2",
      "transactionHash": "0x2c6f2baa14feb6ac00bb224777e1a772376e25b4088d7684cd1cbc0aa11054f6",
      "transactionIndex": "0x3a",
      "blockHash": "0x1b63416d1657a711c5b433dd41c429e0d6be2a7d2d4dc020b36db9f1be81cb12",
      "blockNumber": "0x67c367",
      "gasUsed": "0x15760",
      "effectiveGasPrice": "0x2987506382",
      "from": "0x4f1d6c88f33bd7d25c9b76fcdff0483f4caf0c3a",
      "to": "0x8896f79ec5f83037c43fb2d83385b65a4521b138",
      "contractAddress": null
    }
  ],
  "libraries": [],
  "pending": [],
  "returns": {
    "0": {
      "internal_type": "string",
      "value": "Claim Successful"
    }
  },
  "timestamp": 1727868914,
  "chain": 11155111,
  "commit": "f260ba1"
}